:1000000000000120610F0000D10F0000D30F00009D
:10001000D50F0000D70F0000D90F0000000000002E
:10002000000000000000000000000000DB0F0000E6
:10003000DD0F000000000000DF0F0000E10F0000F6
:10004000E30F0000E30F0000E30F0000E30F0000E8
:10005000E30F0000E30F0000E30F0000E30F0000D8
:10006000E30F0000E30F0000E30F0000E30F0000C8
:10007000E30F0000E30F0000E30F0000E30F0000B8
:10008000E30F0000E30F0000E30F0000E30F0000A8
:10009000E30F0000E30F0000E30F0000E30F000098
:1000A000E30F0000E30F0000E30F0000E30F000088
:1000B000E30F0000E30F000000000000000000005C
:1000C000E30F0000E30F0000E30F0000E30F000068
:1000D000E30F0000E30F0000E30F0000000000004A
:1000E0000000000000000000000000000000000010
:1000F0000000000000000000000000000000000000
:1001000000000000000000000000000000000000EF
:1001100000000000000000000000000000000000DF
:1001200000000000000000000000000000000000CF
:1001300000000000000000000000000000000000BF
:1001400000000000000000000000000000000000AF
:10015000000000000000000000000000000000009F
:10016000000000000000000000000000000000008F
:10017000000000000000000000000000000000007F
:10018000000000000000000000000000000000006F
:10019000000000000000000000000000000000005F
:1001A000000000000000000000000000000000004F
:1001B000000000000000000000000000000000003F
:1001C000000000000000000000000000000000002F
:1001D000000000000000000000000000000000001F
:1001E000000000000000000000000000000000000F
:1001F00000000000000000000000000000000000FF
:100200000A0D000047697665206D652074776F20C0
:100210006E756D626572733A200A0D0025640000E8
:100220005468652070726F647563742062657477BA
:1002300065656E2074686573652074776F206E75D0
:100240006D626572732069732025640A0D000000D9
:1002500010000020202020202020202020202020EE
:1002600020202020303030303030303030303030CE
:10027000303030303031323334353637383941422E
:1002800043444546000000003031323334353637C0
:10029000383961626364656600000000286E756C21
:1002A0006C2900000A0001000200030004000500A0
:1002B00006000700080009000A000B000C000D00F2
:1002C0000E000F0010000000002020202020202021
:1002D00020202828282828202020202020202020F6
:1002E0002020202020202020208810101010101006
:1002F0001010101010101010100404040404040452
:1003000004040410101010101010414141414141EB
:1003100001010101010101010101010101010101CD
:1003200001010101101010101010424242424242DD
:10033000020202020202020202020202020202029D
:100340000202020210101010200000000000000045
:10035000000000000000000000000000000000009D
:10036000000000000000000000000000000000008D
:10037000000000000000000000000000000000007D
:10038000000000000000000000000000000000006D
:10039000000000000000000000000000000000005D
:1003A000000000000000000000000000000000004D
:1003B000000000000000000000000000000000003D
:1003C00000000000000000000000000043000000EA
:0A03D000504F5349580000002E0062
:0803DC00900000000100000088
:1003E4000348044B834202D0034B03B118477047C0
:1003F400B4090020B40900200000000005480649A3
:100404000B1AD90F01EBA301491002D0034B03B11E
:1004140018477047B4090020B40900200000000008
:1004240010B5064C237843B9FFF7DAFF044B13B138
:100434000448AFF300800123237010BDB4090020E9
:1004440000000000B05A000008B5044B1BB1044979
:100454000448AFF30080BDE80840CFE70000000087
:10046400B8090020B05A0000A3F5803A704700BFD5
:10047400154B002B08BF114B9D46FFF7F5FF0021DC
:100484008B460F461148124A121A00F045FE0C4BD7
:10049400002B00D098470B4B002B00D0984700202E
:1004A400002104000D000B4800F09AFD00F0C8FD87
:1004B4002000290000F046F800F098FD0000080034
:1004C400000000000000000000000120B40900202A
:1004D4000C0A00201110000080B586B000AFF8604F
:1004E400B9607A60BB687B6100233B610AE07B6989
:1004F4001B78184600F0B6F87B6901337B613B69D1
:1005040001333B613B697A689A42F0D87B681846AC
:100514001837BD4680BD80B586B000AFF860B960BD
:100524007A60BB687B6100F0BDF80346FB74FB7C1A
:10053400002BF8D07B69FA7C1A700123184618370F
:10054400BD4680BD80B584B000AF1123FB6010E0D0
:100554000122FB689A404FF0A043C3F818250122FA
:10056400FB689A404FF0A043C3F80C25FB680133A5
:10057400FB60FB68142BEBDD00F032F800F040F870
:100584000023BB60124800F07FFD124800F07CFDA0
:100594003B1D1946104800F09BFD3B4619460E488A
:1005A40000F096FD7B683A6802FB03F319460B489A
:1005B40000F06AFD064800F067FD42F21073BB606C
:1005C400BB68013BBB60BB68002BF9D1F5E700BFFA
:1005D40000020000040200001C02000020020000CF
:1005E40080B400AF4FF0A0430C22C3F834274FF07F
:1005F400A0430C22C3F8382700BFBD4680BC704717
:1006040080B400AF4FF0A0430122C3F818274FF085
:10061400A0430022C3F82027104B0622C3F80C2560
:100624000E4B0822C3F814250C4B0D4AC3F824259D
:100634000A4B4FF0FF32C3F80825084B4FF0FF3246
:10064400C3F81025054B0422C3F80025034B0122EF
:100654001A6000BFBD4680BC704700BF0020004048
:100664000050270080B483B000AF0346FB710C4BED
:1006740001229A600A4AFB79C2F81C3500BF084B74
:10068400D3F81C31002BFAD0054B0022C3F81C21EF
:10069400034B0122DA6000BF0C37BD4680BC7047B3
:1006A4000020004080B400AF0C4B01221A600B4BB9
:1006B400D3F80831002B01D100230AE0074B0022B4
:1006C400C3F80821054B01225A60044BD3F81835AE
:1006D400DBB21846BD4680BC704700BF0020004016
:1006E40080B483B000AF1E4B1B68B3F1FF3F0AD147
:1006F4001C4B1B68DBB27B601B4B1B681B0903F0A4
:100704000F033B6005E0164B1B687B60174B1B68AF
:100714003B607B68062B1DD13B68033B042B17D839
:1007240001A252F823F000BF410700004507000072
:10073400490700004D0700005107000001230AE0AB
:10074400012308E0012306E0012304E0012302E081
:10075400012300E0002318460C37BD4680BC7047D7
:1007640030010010E00F00F0E80F00F03401001039
:1007740080B483B000AF184B1B68DBB27B60174BAF
:100784001B681B0903F00F033B607B68062B1DD11C
:100794003B68033B042B17D801A252F823F000BF97
:1007A400B9070000BD070000C1070000C50700002D
:1007B400C907000001230AE0002308E0002306E043
:1007C400002304E0002302E0002300E00023184695
:1007D4000C37BD4680BC7047E00F00F0E80F00F016
:1007E40080B483B000AF1E4B1B68B3F1FF3F0AD146
:1007F4001C4B1B68DBB27B601B4B1B681B0903F0A3
:100804000F033B6005E0164B1B687B60174B1B68AE
:100814003B607B68062B1DD13B68033B042B17D838
:1008240001A252F823F000BF41080000450800006F
:10083400490800004D0800005108000001230AE0A7
:10084400012308E0012306E0012304E0012302E080
:10085400012300E0002318460C37BD4680BC7047D6
:1008640030010010E00F00F0E80F00F03401001038
:1008740080B483B000AF184B1B68DBB27B60174BAE
:100884001B681B0903F00F033B607B68062B1DD11B
:100894003B68033B042B17D801A252F823F000BF96
:1008A400B9080000BD080000C1080000C508000028
:1008B400C908000001230AE0002308E0002306E041
:1008C400002304E0002302E0002300E00023184694
:1008D4000C37BD4680BC7047E00F00F0E80F00F015
:1008E40080B483B000AF1E4B1B68B3F1FF3F0AD145
:1008F4001C4B1B68DBB27B601B4B1B681B0903F0A2
:100904000F033B6005E0164B1B687B60174B1B68AD
:100914003B607B68062B1DD13B68033B042B17D837
:1009240001A252F823F000BF41090000450900006C
:10093400490900004D0900005109000001230AE0A3
:10094400012308E0012306E0012304E0012302E07F
:10095400012300E0002318460C37BD4680BC7047D5
:1009640030010010E00F00F0E80F00F03401001037
:1009740080B483B000AF184B1B68DBB27B60174BAD
:100984001B681B0903F00F033B607B68062B1DD11A
:100994003B68033B042B17D801A252F823F000BF95
:1009A400B9090000BD090000C1090000C509000023
:1009B400C909000001230AE0002308E0002306E03F
:1009C400002304E0002302E0002300E00023184693
:1009D4000C37BD4680BC7047E00F00F0E80F00F014
:1009E40080B483B000AF184B1B68DBB27B60174B3D
:1009F4001B681B0903F00F033B607B68062B1DD1AA
:100A04003B68033B042B17D801A252F823F000BF24
:100A1400290A00002D0A0000310A0000350A0000EE
:100A2400390A000001230AE0002308E0002306E05D
:100A3400002304E0002302E0002300E00023184622
:100A44000C37BD4680BC7047E00F00F0E80F00F0A3
:100A540080B483B000AF1E4B1B68B3F1FF3F0AD1D3
:100A64001C4B1B68DBB27B601B4B1B681B0903F030
:100A74000F033B6005E0164B1B687B60174B1B683C
:100A84003B607B68062B1DD13B68033B042B17D8C6
:100A940001A252F823F000BFB10A0000B50A000019
:100AA400B90A0000BD0A0000C10A000000230AE0E0
:100AB400002308E0012306E0012304E0012302E00F
:100AC400012300E0002318460C37BD4680BC704764
:100AD40030010010E00F00F0E80F00F034010010C6
:100AE40080B483B000AF1E4B1B68B3F1FF3F0AD143
:100AF4001C4B1B68DBB27B601B4B1B681B0903F0A0
:100B04000F033B6005E0164B1B687B60174B1B68AB
:100B14003B607B68062B1DD13B68033B042B17D835
:100B240001A252F823F000BF410B0000450B000066
:100B3400490B00004D0B0000510B000001230AE09B
:100B4400012308E0012306E0012304E0012302E07D
:100B5400012300E0002318460C37BD4680BC7047D3
:100B640030010010E00F00F0E80F00F03401001035
:100B740080B483B000AF1E4B1B68B3F1FF3F0AD1B2
:100B84001C4B1B68DBB27B601B4B1B681B0903F00F
:100B94000F033B6005E0164B1B687B60174B1B681B
:100BA4003B607B68062B1DD13B68033B042B17D8A5
:100BB40001A252F823F000BFD10B0000D50B0000B6
:100BC400D90B0000DD0B0000E10B000001230AE05B
:100BD400012308E0012306E0012304E0012302E0ED
:100BE400012300E0002318460C37BD4680BC704743
:100BF40030010010E00F00F0E80F00F034010010A5
:100C040080B483B000AF164B1B687B60154B1B6828
:100C14003B607B68062B1DD13B68033B042B17D834
:100C240001A252F823F000BF410C0000450C000063
:100C3400490C00004D0C0000510C000000230AE098
:100C4400002308E0002306E0012304E0012302E07E
:100C5400012300E0002318460C37BD4680BC7047D2
:100C6400300100103401001080B483B000AF164B83
:100C74001B687B60154B1B683B607B68062B1DD192
:100C84003B68033B042B17D801A252F823F000BFA2
:100C9400A90C0000AD0C0000B10C0000B50C000064
:100CA400B90C000000230AE0002308E0002306E05A
:100CB400002304E0012302E0012300E0002318469E
:100CC4000C37BD4680BC7047300100103401001061
:100CD40080B500AFFFF7C8FF0346002B07D04FF0E5
:100CE40010234FF08042D3F80832C2F8583500BFC1
:100CF40080BD000080B400AF034B044A1A6000BFFB
:100D0400BD4680BC704700BF000000200090D003A7
:100D140080B500AFFFF7E4FC0346002B06D07F4B01
:100D24001B681B0A7E4A03F01F031360FFF720FDB4
:100D34000346002B02D07B4B7B4A1A60FFF750FD21
:100D44000346002B06D0794B1B685B0B784A03F0F3
:100D540007031360FFF78CFD0346002B05D0754B8A
:100D6400DB68744A23F08073D360FFF7B9FD034650
:100D7400002B0ED04FF080430022C3F80C214FF01B
:100D840080430022C3F810214FF080430022C3F8AF
:100D94003825FFF7EDFD0346002B02D0664B0322F6
:100DA4001A60FFF71DFE0346002B0BD0634B052290
:100DB4001A60634B01221A60624B00221A60624B74
:100DC4003F221A60FFF744FE0346002B76D04FF013
:100DD40080535E4AD3F80434C2F820354FF0805370
:100DE4005A4AD3F80834C2F824354FF08053574A8E
:100DF400D3F80C34C2F828354FF08053534AD3F853
:100E04001034C2F82C354FF08053504AD3F81434C0
:100E1400C2F830354FF080534C4AD3F81834C2F836
:100E240034354FF08053494AD3F81C34C2F8403566
:100E34004FF08053454AD3F82034C2F844354FF07C
:100E44008053424AD3F82434C2F848354FF08053D3
:100E54003E4AD3F82834C2F84C354FF080533B4A0D
:100E6400D3F82C34C2F850354FF08053374AD3F8B6
:100E74003034C2F854354FF08053344AD3F8343404
:100E8400C2F860354FF08053304AD3F83834C2F892
:100E940064354FF080532D4AD3F83C34C2F868359A
:100EA4004FF08053294AD3F84034C2F86C354FF0E0
:100EB4008053264AD3F84434C2F87035FFF710FE45
:100EC4000346002B05D0224B1B68224A03F04F0334
:100ED4001360FFF74DFE0346002B0DD04FF0804307
:100EE400D3F8003403F00103002B05D04FF0804306
:100EF4006FF00102C3F80024FFF782FE0346002BC3
:100F040005D0154B1B68144A43F480631360FFF744
:100F1400DFFEFFF7EFFE00BF80BD00BF240300101B
:100F24004035014074C007400DF0ADBA44020010D2
:100F34003C050040F0ED00E0A005004010560040E4
:100F440088560040185600401456004000C0004027
:100F540058020010E40E00403C1700400F49104AAC
:100F6400104B00F010F81049104A114B00F00BF828
:100F74001049114A114B00F006F81149114A124B5D
:100F840000F001F806E0521A03DD043A985888503C
:100F9400FBDC7047FFF7BCFEFFF76AFA0000002095
:100FA400B4090020FC5A0000B4090020B409002050
:100FB400B0640000B4090020B4090020B06400004B
:100FC400B4090020B4090020B0640000FEE7FEE785
:100FD400FEE7FEE7FEE7FEE7FEE7FEE7FEE7FEE7E5
:100FE400002301461A46184601F06EBD08B50021DB
:100FF400044601F09DFD044B1868C36B03B1984788
:10100400204604F03FFD00BF5002000038B50A4CF2
:101014000A4D641BA4100AD004F18043013B05EB84
:101024008305013C55F804399847002CF9D1BDE8F3
:10103400384004F033BD00BFB05A0000AC5A000081
:1010440070B50D4E0D4D761BB61006D0002401343C
:1010540055F8043B9847A642F9D1094E094D761B31
:1010640004F012FDB61006D00024013455F8043BF8
:101074009847A642F9D170BD985A0000985A0000CA
:10108400A05A0000985A00000FB400B5074983B075
:1010940004AB086853F8042B8168019300F0D0F87E
:1010A40003B05DF804EB04B0704700BF08000020F3
:1010B4000EB400B582B003AB816853F8042B0193DE
:1010C40000F0BEF802B05DF804EB03B0704700BF57
:1010D4000FB400B5074983B004AB086853F8042B78
:1010E4004168019300F0E6FE03B05DF804EB04B040
:1010F400704700BF080000200EB400B582B003ABF7
:10110400416853F8042B019300F0D4FE02B05DF85B
:1011140004EB03B0704700BFF0B4860746D0541EFA
:10112400002A3CD0CAB2034602E014F1FF3436D39D
:1011340003F8012B9D07F8D1032C29D9CDB245EA38
:1011440005250F2C45EA054533D9A4F110063609C7
:1011540003F1200707EB061703F1100242E90455D7
:1011640042E902551032BA42F8D1721C14F00C0F45
:1011740003EB021204F00F0613D0331F23F0030312
:101184000433134442F8045B9342FBD106F0030496
:101194002CB1C9B21C4403F8011B9C42FBD1F0BC26
:1011A400704734461346002CF3D1F8E7144603463F
:1011B400C2E71A462646E0E72DE9F84F4B6E9C0439
:1011C40093462DD59368126843B30E46074602F141
:1011D400080959E9025A5FEA9A0815D0043D002427
:1011E40001E0A0450ED0324655F8041F384601F000
:1011F40017FF431C04F10104F3D10023CBE90133AD
:10120400BDE8F88FDBF808302AF0030AA3EB0A03E1
:10121400CBF8083009F10809002BDAD10020ECE7FB
:1012240002F04EF90023CBE90133BDE8F88F00BF8B
:10123400936803B1C0E710B41846536010BC7047FC
:101244002DE9F04FABB01C468A469046CDE90430F8
:1012540018B1836B002B00F00083BAF90C108AB22A
:1012640090040AD4DAF8643041F4005223F40053B1
:10127400AAF80C20CAF8643092B2110740F1CA806F
:10128400DAF81030002B00F0C58002F01A020A2AA6
:1012940000F0CE8000230893CDE90E3302931AABFD
:1012A4000D939B4698F80030002B00F0DF80252B2F
:1012B40000F01C85454603E0252B00F0C68025463A
:1012C4006B786C1C002BF7D1B4EB080600F0CE80D1
:1012D400DDE90E3201333244072BCBF80080CBF822
:1012E4000460CDE90E3200F3B5800BF1080B029ACD
:1012F4006B7832440292002B00F0B8804FF0000368
:1013040000218DF82F306378039108460F4604F1CD
:1013140001084FF0FF3908F10108A3F12002582A0F
:1013240000F29E82DFE812F0F9009C029C02F400B5
:101334009C029C029C029C029C029C02E900E40028
:101344009C02DF00C6009C02C100B200B200B200E1
:10135400B200B200B200B200B200B2009C029C0221
:101364009C029C029C029C029C029C029C029C0289
:1013740028029C029C029C029C029C029C029C02ED
:101384009C029C029C0267009C029C029C029C02A0
:101394009C0259009C029C0213029C029C029C0227
:1013A4009C029C029C029C029C029C029C02840162
:1013B40057019C029C029C02520157019C029C0210
:1013C40045019C026E0269003F0240019C0220011B
:1013D4009C025B009C029C02010147F01007BA06C4
:1013E400049B40F12782073323F00703F3E8024507
:1013F40004930123E5E147F0100717F0200300F000
:101404002282049B073323F00703F3E80245049385
:101414000023D6E15146059801F0EEFA002840F089
:10142400F484BAF80C2002F01A020A2A7FF432AFCC
:10143400BAF90E30002BFFF62DAF23464246514633
:10144400059800F001FD02901CE0B4EB08063FF49F
:1014540055AF3DE7002A00F00F840DAA51460598C8
:10146400FFF7AAFE48B90DF1680B40E70F9B23B1C3
:1014740005980DAA5146FFF79FFEBAF80C305B069B
:1014840000F1C38402982BB0BDE8F08FA3F13002C1
:10149400002418F8013B04EB840402EB4404A3F198
:1014A4003002092AF5D9039437E747F0800798F802
:1014B400003030E7444614F8013B2A2B00F0AA849C
:1014C400A3F13002092AA0464FF000093FF625AFE8
:1014D40018F8013B09EB890902EB4909A3F1300231
:1014E400092AF5D919E798F8003047F0040712E7FC
:1014F40098F8003001212B200DE7049A98F8003069
:1015040052F8044B0394002CC0F21584049202E7B1
:1015140047F0010798F80030FDE698F800300028FD
:101524007FF4F9AE01212020F5E6002940F05B8428
:10153400BE4A0892B806049A40F11281073222F09A
:101544000702F2E802450492FE0740F1998154EA49
:10155400050200F0958130228DF8313047F0020702
:101564008DF8302002232CE1049C54F8046B4FF0D6
:1015740000038DF82F30002E00F00784B9F1FF3FEF
:1015840000F0DE834A460021304602F03FFD002889
:1015940000F01984831B01939DF82F300494009765
:1015A40006934FF00009B0E147F0200798F80030A7
:1015B400B1E698F800306C2B03BF98F8013047F07F
:1015C400200708F1010847F01007A4E647F0400798
:1015D40098F800309FE6002940F00184BA06049B85
:1015E40040F1D380073323F007031946F1E80223BF
:1015F400049114461D46002A73F10003C0F2498386
:101604009DF82F300693B9F1FF3F00F0148327F0C3
:101614008003009354EA050340F00C83B9F1000FF2
:1016240040F0CF834FF00009CDF804901AAE6CE17E
:10163400049B012553F8042B8DF840204FF0000142
:101644008DF82F100493019510AE00974FF0000908
:10165400009BDDE90E2C13F002030693009B18BFD8
:101664000235501C13F084030146079304D1039BF5
:101674005C1B002C00F325829DF82F400BF1080021
:101684007CB10CF1010C0DF12F0401220729CDE9E5
:101694000E1CCBE9004200F3F4810A468346013173
:1016A4000830069BE3B10CF1020C0CAA02230729B3
:1016B400CDE90E1CCBE9002340F3FD81BCF1000F02
:1016C40000F0FD820DAA51460598FFF775FD00282C
:1016D4007FF4D3AEDDE90E2C1CA8511C0DF1680B70
:1016E400079B802B00F01C81019BA9EB0307002FB3
:1016F40000F37381019A0E911346634407290F93F3
:10170400CBE900620CDD002B00F024820DAA5146C7
:101714000598FFF751FD00287FF4AFAE0F9B1AA880
:10172400009A520704D5039A541B002C00F31B8221
:10173400DDE90221A942ACBF521852190292002BD2
:1017440040F0918100230E930DF1680BAAE5002966
:1017540040F05283364A0892B806049A3FF5EEAE3A
:1017640052F8044B0492F90600F19C827A0640F187
:101774009982A4B20025E7E6002940F02D8347F0C2
:101784001007BA06049B3FF52DAF53F8044B04939E
:10179400FE0600F176827D0640F1738224B2E517DD
:1017A40022462B4627E7049B53F8044B049347F641
:1017B40030021E4B0893ADF8302047F00207002595
:1017C40002234FF000028DF82F2000220692B9F177
:1017D400FF3F58D027F08002009254EA050251D10D
:1017E400B9F1000F40F00A82002B7FF41BAF17F011
:1017F4000103019300F07D8230238DF867300DF1F1
:10180400670682E0002940F0F282049ABC0652F88E
:10181400043B049200F18282F80600F1AA82790660
:1018240040F1A782029A1A803CE500BF88020000BA
:101834007402000053F8044B0493FE0640F16882DE
:1018440000250123BDE7049A52F8044B049217F0D3
:10185400100200F056820025B3E701F06DFBFCE4B2
:10186400002940F0AB82002B3FF400AE01258DF837
:1018740040304FF000038DF82F30019510AEE4E6B0
:1018840002239EE7009F012B00F0D581022B00F07C
:10189400BC811AA900E03146E20842EA4572E80830
:1018A40004F0070305461446303354EA050201F8F0
:1018B400013C01F1FF36EED1F80722D5302B20D0C0
:1018C4003023023906F8013C1AAB5B1A00970193E6
:1018D4000E461AE01AAE01E004460D460A22002321
:1018E4002046294603F026FF303206F8012D002356
:1018F4000A222046294603F01DFF002D08BF0A2CAA
:10190400EAD21AAB9B1B00970193019B4B45B8BFCE
:101914004B461D46069B002B3FF49AAE013597E6D5
:10192400039B5F1B002F7FF7DFAE102FBF4C40F3EC
:1019340069826346DC46AB462546059C06E0901C5E
:101944000CF1080C0A46103F102F1EDD511C1033F9
:10195400102007290F93CCF80050CCF804000E9106
:10196400EDDD0DAA51462046002B00F08580FFF7DF
:1019740023FC00287FF481ADDDE90E23103F102FF6
:1019840002F101000DF1680CE0DC2C465D46E346F3
:101994009C460BF10803BC440728CDF83CC0CBE9B6
:1019A40000470E9040F3A781BCF1000F00F0F781CF
:1019B4000DAA51460598FFF7FFFB00287FF45DADA3
:1019C400019BDDE90E2CA9EB0307002F02F10101B5
:1019D4001CA80DF1680B7FF78DAE102F934C40F3CC
:1019E400DC8163464FF01009DC46AB462546059C76
:1019F40006E0911C0CF1080C0246103F102F19DD73
:101A0400501C103307280F93CCE900590E90F0DDD9
:101A14000DAA514620460BB3FFF7CEFB00287FF4F6
:101A24002CADDDE90E23103F102F02F101010DF161
:101A3400680CE5DC2C465D46E3469C460BF1080346
:101A4400BC440729CDF83CC0CBE900470E9100F314
:101A54000081013103F108009B464BE601211A463F
:101A64000DF1680CC9E70DAA51460598FFF7A4FBD0
:101A740000283FF467AE00E501201A460DF1680C1A
:101A840061E7BCF1000F00F00F810DAA51460598E3
:101A9400FFF792FB00287FF4F0ACDDE90E2C1CA8C4
:101AA400511C0DF1680BFCE502230CAACDE91A23A5
:101AB4009C461CA8012183460A46511C0BF10800D0
:101AC4000EE6102C5A4F40F395810996594610237F
:101AD400C3466646A846059D07E002F1020E08319A
:101AE4000246103C102C1ADD501C103607280F96A5
:101AF400C1E900730E90F0DD0DAA5146284626B3C5
:101B0400FFF75AFB00287FF4B8ACDDE90E26103C41
:101B1400102C02F1010E1AA94FF01003E4DCB446B4
:101B2400099E4546D8468B46A444BEF1070FCDF81E
:101B34003CC0CBE90074CDF838E000F3C6800BF16B
:101B4400080B0EF10101724696E532464FF0010E84
:101B54001AA9C6E7009A0E93510747D5039A541B56
:101B6400002C43DD1AA8102C0E99314F40F3478105
:101B74001026DDF8149006E001F1020C083011463D
:101B8400103C102C18DD4A1C1033072A0F93C0E9AF
:101B940000760E92F0DD0DAA514648460BB3FFF7CE
:101BA4000BFB00287FF469ACDDE90E13103C102C0C
:101BB40001F1010C1AA8E6DC2344BCF1070F0F93D2
:101BC400C0E90074CDF838C07FF7B2AD73B10DAA87
:101BD40051460598FFF7F0FA00287FF44EAC0F9BAE
:101BE400A6E54FF0010C19461AA8C9E7DDE902324F
:101BF400AA42ACBF9B185B190293A3E5012B00F02A
:101C0400E080022B009F7FF444AE08981AAE2309AB
:101C140004F00F0143EA05732A091C461546435C88
:101C240006F8013D54EA0503F1D16AE664020000B6
:101C340054020000009F002D08BF0A2CBFF44AAED6
:101C4400303401238DF86740009701930DF1670646
:101C54005BE6BCF1000F00F090800DAA5146059898
:101C6400FFF7AAFA00287FF408ACDDE90E1C1CA8D3
:101C740001310DF1680B3DE50E920DF1680BFFF794
:101C840036BBE51722462B46002A73F10003BFF644
:101C9400B7AC2D2364428DF82F30069365EB4505D0
:101CA400012394E500254FE4069B002B3DD002233D
:101CB4000CA9CDE91A139C460DF1700BFDE61CA886
:101CC400012162460DF1680B0AE5BCF1000F43D017
:101CD4000DAA51460598FFF76FFA00287FF4CDABA3
:101CE400DDE90E2C0DF1680B511CC5E44446FFF7E9
:101CF40005BB1AAE09E6411C02469B4603F10800E7
:101D0400F2E417F040031CBF1346A4B2002558E5C3
:101D14007D0648BFA4B20025012352E5029A10466D
:101D2400D117C3E90001FFF7BDBA11461CA86246EA
:101D34000DF1680BD4E46442CDE90342FFF7D5BB4F
:101D440030460494009702F019FF9DF82F3001905B
:101D540006934FF00009D8E59DF82F202ABB069B77
:101D6400002B7FF4A1AE62461CA801210DF1680B83
:101D7400BAE4029A1A60FFF795BA019B1B930122F9
:101D84000F931A960E921CA8CAE44D46062D28BF3E
:101D9400062501950494254E57E4034650E61CA8F5
:101DA400012162460DF1680B9EE401220DF12F0022
:101DB4001A9094461B9211461CA86EE48DF82F00CD
:101DC40051E5009F3CE79DF82F30CDF80490069331
:101DD40004940097814698E58DF82F00CFE48DF8A0
:101DE4002F00FFF7FBBB8DF82F00FFF7A1BB8DF889
:101DF4002F000AE5864697E68DF82F00AAE401F144
:101E0400010CD9E603460846C5E54FF0FF330293BB
:101E1400FFF738BB049D98F8013055F8042B04955E
:101E2400A04642EAE279FFF776BA00BF9C020000BE
:101E340010B4044C13460A460146206810BCFFF750
:101E4400FFB900BF08000020F0B50C46ADF26C4DA0
:101E54008989666EE589199621F00201666AADF8F2
:101E64000E500025E769ADF80C10099606951AAED8
:101E74004FF4806569460096049602950595079788
:101E84000646FFF7DDF9051E07DB3046694600F01C
:101E94004DFF002818BF4FF0FF35BDF80C305B062E
:101EA40003D5A38943F04003A38128460DF26C4D6A
:101EB400F0BD00BF2DE9F04F8A46DFB0B1F90C1038
:101EC400049088040392079309D4DAF8643041F447
:101ED400005123F40053AAF80C10CAF8643000230C
:101EE400DFF8B0B309930D93069399460593039EC7
:101EF40016F8013B0F93002B7CD01BF8035015F010
:101F0400080540F09380252B79D1039B5A782C4601
:101F1400A2F12503711C532B6CD8DFE813F06F007A
:101F24006B006B006B006B0079016B006B006B0046
:101F34006B006B006D016D016D016D016D016D0133
:101F44006D016D016D016D016B006B006B006B0029
:101F54006B006B006B006B006B006B0069016B0026
:101F64006B006B006B006B006B006B0053016B002C
:101F74006B004F016B006B006B006B006B006B0020
:101F84006B006B0046016B006B003E016B006B0045
:101F94006B006B006B006B006B00390132016B004E
:101FA4006B006B002A0118016B006B000D016B00C4
:101FB400FF00AF0065016B006B0062016B005B0109
:101FC4006B006B0046015146049802F035FB002873
:101FD40000F08E84089B002B00F01E83059A002AD3
:101FE40000F0A584BAF80C3013F0400F18BF4FF07E
:101FF400FF32059205985FB0BDE8F08F0E46DAF81F
:102004000430002B33DDDAF8003016F8012C19788F
:102014009142EFD1DAF8042003960133013ACAF869
:10202400003009F10109CAF8042060E7DAF8042055
:10203400049C12E0DAF800301A781BF8022012F03F
:10204400080F03F1010310D0DAF80420CAF80030B5
:10205400013A09F10109CAF80420002AEADC5146D0
:10206400204602F0E9FA0028E4D003963FE75146FF
:10207400049802F0E1FA0028C5D0AFE70391834B3E
:102084000993082306930326DAF80430002B69DD4C
:102094006A062DD5022E00F0BB81032E00F0FC80D1
:1020A400012E00F0BC80002C08BF012405F01007AD
:1020B40015F0010540F0D482002F40F0B582079D51
:1020C400049855F8041BCDF800A02346012200F023
:1020D400D9FF002882D0059B0795013381440593DD
:1020E40005E75146049802F0A7FA00287FF476AF7A
:1020F400DAF8002013781BF8033013F0080F02F10C
:102104000102C7D0DAF80430013B002B09F10109C0
:10211400CAF80430E5DDCAF80020EBE7EE060391C7
:102124003FF5E5AE079A6C0752F8043B079240F17D
:10213400C983A3F80090DAE62A077FF45BAF7278CC
:102144006C2A00F0508245F001050E46E0E6504B43
:10215400099300230693DAF804300391002B4FF01F
:10216400030695DC5146049802F066FA00288FD0E5
:1021740034E72F077FF43EAF727845F004050E462E
:10218400C6E60391424B09930A23069303267BE791
:10219400039145F04005002676E71EA802F0EAFA0E
:1021A40045F04005039001266EE7039145F4007560
:1021B400364B099310230693032665E7039145F0F4
:1021C40001055CE72B077FF415AF727845F0020533
:1021D4000E469DE62D4B09930A230391069303268D
:1021E40052E7039102264FE7039145F40875DFE7B0
:1021F400039145F00105C5E715F08F0F7FF4FAAEA2
:1022040004EB840402EB4404303C72780E467FE60F
:102214002C437FF4EFAE727810250E4678E6002C3E
:1022240005F0100308BF4FF0FF3415F001050B93C0
:1022340040F08B820B9ADAF80030002A00F091818A
:102244000DF178081A7818F802200133C2B1DAF8CF
:102254000420CAF800300135013AAC42CAF804201F
:1022640011D0002AEEDC5146049802F0E5F950B989
:10227400DAF800301A7818F802200133002AE6D17F
:10228400002D3FF4B7AEA94431E600BFB9500000B9
:10229400914D0000C9020000631E262B40F21481F8
:1022A400A4F127030A93272414AFCDF82090DDF876
:1022B400189045F458653E464FF00008DAF80010CF
:1022C4000878A0F12B034D2B41D8DFE803F09C40A4
:1022D4009C404079737373737373736C6C404040A8
:1022E4004040404066666666666640404040404006
:1022F40040404040404040404040402740404040F3
:1023040040404040666666666666404040404040E5
:1023140040404040404040404040402705F4C063B6
:10232400B3F5007F13D125F4007545F4A0654FF093
:102334001009DAF8043006F8010B013B002BCAF847
:10234400043059DD0131CAF80010013CB6D1E8056A
:10235400CDF81890DDF8209005D5BE4200F28882B1
:10236400BE423FF447AE15F0100412D12246069B3C
:1023740034703946099C0498A047079BA90603F1C9
:10238400040440F124811B681860059B0794013301
:102394000593F61BB044C144A9E5B9F10A0FD6DD93
:1023A40025F43865C5E7AD4B33F91990B9F1080F39
:1023B400F6DCCCE7A94B25F4386533F91990B8E776
:1023C4002B05B6D5B9F1000F03D145F400754FF0D4
:1023D40008096A0500F1F8800A9B25F4607513B1B9
:1023E400013B0A930134DAF80430013B002B08F175
:1023F4000108CAF80430A5DC5146049802F01CF91F
:102404000028A2D0A3E72B06A1D525F0800590E7EC
:10241400002C08BF4FF0FF3405F0100615F001053D
:10242400DAF8003053D1002E38D1079DDDF8108042
:1024340055F8046B3444374601E0DAF800301A7872
:102444001BF80220120703F1010115D4DAF8042065
:10245400CAF80010013ACAF804201B7807F8013BB7
:10246400A74209D0DAF80430002BE6DC5146404696
:1024740002F0E2F80028E0D0059A0795BE1B00237D
:1024840001320592B1443B7031E55146049802F0A3
:10249400D3F800287FF4F7AEDAF800301A781BF886
:1024A4000220110703F101033FF5EDAEDAF8042031
:1024B400CAF800300135013AAC42CAF804203FF4AE
:1024C400E2AE002AEADCE0E700230A93ECE6002E01
:1024D40000F084800FAD00270DF150081B781BF825
:1024E4000330180700F19880002C00F0958001F06B
:1024F400E9F9B8423FF472ADDAE9002312F8011B9E
:1025040008F80710013BCAE900237B1C08930D9BC4
:10251400032B12AB0A9302D1129B042B04D0082282
:1025240000210A98FEF7F8FD0A9B009342467B1CA3
:102534002946049801F0FEFC421C0D903FF44EAD78
:10254400002840F0CD81286001F08EF900284FD199
:10255400089B9944013C002E40F0D2810435089632
:10256400C1E1079D55F8046B0DF1780834443746F2
:1025740001E0DAF80030197818F80110581CC1B1DC
:10258400DAF80410CAF800000139CAF804101B78FC
:1025940007F8013BA7420CD0DAF80430002BE8DC42
:1025A4005146049802F048F80028E2D0BE423FF4B5
:1025B40015ADBE1B3FF41EAD059A079500230132ED
:1025C4000592B1443B7092E425F4B065B1E66A0724
:1025D40040F16281079B1B681880D6E6079A52F87F
:1025E400045B079277E7B27845F0020502368FE480
:1025F400089B8BB1474433462E463D461F4600E0B8
:1026040025462C46524614F80119049802F09CFE03
:10261400A845F5D135463E46002E7FF468AC2E60C1
:10262400059B0133059362E4049F08E0CAF8006047
:102634001D44E41A02F000F8002840F02181DAE990
:1026440000239C425146384602EB0306EEDC1B1B7A
:1026540022442544CAE90023A94448E4A402000012
:10266400002F40F01381079B53F8042B07930A971C
:102674000D9FCDF8209000250DF15008914601F0F2
:1026840021F9A8423FF4AAACDAE90012032F11F8A9
:10269400010B08F8050002F1FF32CAF8001005F139
:1026A4000105CAF8042012AE02D13368042B04D009
:1026B400082200213046FEF72FFD2B4600964246A5
:1026C4004946049801F036FC431C07463FF486ACA7
:1026D40060BB0A9B0BB9C9F80030089B2B440893D4
:1026E4000A9D013C002D2ED109F10409DAF80420D9
:1026F400002A09DD002CC2D10D970A9FDDF8209035
:10270400002F8DD0FFF7F3BB5146049801F094FFDE
:102714000028EFD00D97DDF820900A9F002D7FF45C
:102724005DAC002F3FF47CAFFFF7E1BB0230DDD09E
:10273400089B032F2B440893D2D13268042ACFD1AB
:102744000A9D002DD0D00025D0E7002B40F0A180B9
:10275400079B53F8042B0A9207930894002614ADA0
:10276400CDF830900D9C31E03B460746186012AB23
:102774001846082200210D93FEF7CEFC79480D9BE4
:102784003A460EA9D0F8E0700498B84701280CBF67
:102794009DF8387000271EABDB5D002B00F0B38082
:1027A4000C9B032C43440C935DD0089B013B089382
:1027B4000B9E002E55D10A9B04330A93DAF8043099
:1027C400002B37DD089B002B00F0968001F07AF88F
:1027D400B0423FF403ACDAE9002312F8011BA95517
:1027E400013B032CCAE9002306F101080DF140095D
:1027F40003D1D9F80030042B04D008220021484624
:10280400FEF78AFC0A9FCDF80090394643462A46D3
:10281400049801F08FFB411C04463FF4DFAB002811
:10282400A2D0821C08BF4646C8D00A9B1F687B1CE6
:102834009DD1B0E75146049801F0FEFE0028C1D0B6
:102844000D94DDF83090002E7FF4C8AB0B9B002B69
:102854007FF44DAB0A9A1360059B01330593FFF790
:1028640046BB0026AAE7D9F80030042B9DD19FE788
:1028740016F8011C0498524602F066FD013E6FE50D
:10288400002D3FF4ABABA944FFF731BB00231A463C
:10289400EDE60FAB0A9360E715F0010210D1AB0728
:1028A4000ED5099B049819462F4B9942069B39462D
:1028B40042D002F049FB079B1B68C3E9000164E5B1
:1028C400079B60E5E80707D4A90705D54846C11763
:1028D400C3E90001FFF70BBBC3F80090FFF707BB88
:1028E4000D9B02332BD1DAF80430002B7FF76BAB4E
:1028F400DAF80030089FF1E50D94DDF83090A5E793
:1029040000230893EFE70D94DDF83090B8F1000F41
:102914009CD02E44049F00E026463446524614F8C8
:102924000119384602F010FDAE42F5D18EE74FF0A2
:10293400FF330593FFF75EBB02F0B4FCBBE72868E6
:1029440000F092FF00287FF453AE089B99440D9B3E
:10295400032B7FF4FFAD0A9B1B68042B7FF4FAADB5
:10296400F9E500BF38040020B95000000E4B2DE9F2
:10297400F0411C6805460E4617460CB1A36B3BB1EB
:102984003B46324629462046BDE8F041FFF792BA5D
:10299400204600F0D1FA3B46324629462046BDE89F
:1029A400F041FFF787BA00BF0800002010B4044CC0
:1029B40013460A460146206810BCFFF77BBA00BFE5
:1029C4000800002030B5044685B008B1856B2DB1F0
:1029D400204605B0BDE83040FFF76CBACDE90223CC
:1029E400019100F0A9FADDE902230199204605B01E
:1029F400BDE83040FFF75EBA38B5324B1B68054678
:102A04000C460BB19A6B12B3B4F90C2093B21807AD
:102A140025D5206900282DD013F0010207D0636961
:102A240000225B42A361A26038B1002038BD99073F
:102A340058BF6269A2600028F7D1B4F90C301A06B5
:102A4400F4D543F04003A3814FF0FF3038BD18465E
:102A540000F072FAB4F90C2093B21807D9D4D9064D
:102A640028D5580712D4206942F00803A3819BB2E9
:102A74000028D1D103F42072B2F5007FCCD02846CF
:102A8400214600F05BFFA3892069C5E7216B51B1A2
:102A940004F14003994204D0284600F017FCB4F92D
:102AA4000C200023236300232069636022F02402A6
:102AB4002060D9E742F0400209232B604FF0FF3039
:102AC400A28138BD08000020F0B4184C2568D5F860
:102AD400484114B365681F2D24DC38B9AB1C01359B
:102AE400656044F823100020F0BC704704EB8506B1
:102AF4000127C6F8882007FA05F2D4F8887102285D
:102B040047EA0207C4F88871C6F80831E6D1D4F858
:102B14008C311A43C4F88C21E0E705F5A674C5F896
:102B24004841D7E74FF0FF30DEE700BF5002000016
:102B34002DE9F04F244B83B0D3F800B001908A46BE
:102B44004FF00008DBF8486196B17468651E0FD435
:102B5400013406EB84040127BAF1000F0BD0D4F83A
:102B64000031534507D0013D6B1CA4F10404F3D19B
:102B740003B0BDE8F08F73682268013BAB420CBF21
:102B84007560C4F80080002AEDD0D6F88811D6F814
:102B9400049007FA05FC1CEA010F08D190477268FB
:102BA4004A45CFD1DBF84831B342DCD0CAE7D6F886
:102BB4008C31D4F880101CEA030F02D1019890479D
:102BC400EDE708469047EAE750020000024B13B1D4
:102BD4000248FEF705BA704700000000111000001B
:102BE400B1F90C309AB22DE9F0410C461107804638
:102BF40048D4626843F40063002AA3815DDDA56ABA
:102C0400002D57D000229BB2D8F80060E169C8F8C3
:102C1400002013F4805254D101234046A847431C9A
:102C240066D0A389A56AE1695F0705D56268236B4D
:102C3400801A0BB1E36BC01A024600234046A84732
:102C4400451C48D1D8F80020B4F90C30002A5CD0D7
:102C54001D2A01D0162A64D122690021C4E9002169
:102C640023F40063A381216BC8F8006011B304F15D
:102C74004003994202D0404600F028FB0020206324
:102C8400BDE8F0812669AEB12568266091070CBFC6
:102C940063690023AD1BA3600AE02B463246676AD2
:102CA400E1694046B8470028A5EB000506440ADD63
:102CB400002DF2DC0020BDE8F081E26B002A9EDCEE
:102CC400F8E7206DB0E7A38943F04003A3814FF0F8
:102CD400FF30BDE8F081B4F90C302269226023F49E
:102CE400006300226260DA04A381BCD52065BAE7E0
:102CF400D8F80030002B94D01D2B0FD0162B0DD0FC
:102D0400A38943F04003A381D5E723F40063216939
:102D1400A381DB04C4E90012A5D5E7E7C8F8006085
:102D2400C8E743F04003A381C5E700BF10B50446DC
:102D340082B008B1836B23B1B1F90C0048B902B079
:102D440010BD019100F0F8F80199B1F90C000028C8
:102D5400F5D0204602B0BDE81040FFF741BF00BFE8
:102D640020B1054B01461868FFF7E0BF034B044947
:102D7400186800F04FBD00BF08000020500200009A
:102D8400312D000000207047014900F043BD00BF11
:102D9400FD5500002DE9F84F45682C4BC363002412
:102DA400074600F53B7204230321C0E9B912C0F8B9
:102DB400E0422146EB6005F15C006C66C5E9004425
:102DC400AC60C5E90444AC610822FEF7A5F9DFF85C
:102DD40088B0BE68DFF884A0DFF88490DFF88480D0
:102DE4001B4BC5F82C80C5E9075BC5E909A9214639
:102DF400F360082206F15C007466C6E90044B4601E
:102E0400C6E90444B461FEF787F9FD68114BC6F8BE
:102E14002C80C6E9076BC6E909A92146EB606C66FC
:102E2400C5E90044AC60C5E90444AC6105F15C004B
:102E34000822FEF771F90123C5E9075BC5E909A971
:102E4400C5F82C80BB63BDE8F88F00BF8D2D000052
:102E54000900010012000200E947000011480000C7
:102E640051480000714800000020704770B54A1EA8
:102E7400682505FB02F50E4605F1740100F0A8FD76
:102E8400044640B100210C30666005F168022160FF
:102E9400A060FEF741F9204670BD00BF1F4B70B51E
:102EA4001D68AB6B06464BB305F53875D5E901349F
:102EB400013B05D51EE0013B5A1C04F1680419D0FE
:102EC400B4F90C20002AF6D10025154B6566C4E937
:102ED4000055A560C4E90455A5612946E3600822AC
:102EE40004F15C00FEF718F9C4E90C55C4E9115566
:102EF400204670BD2C682CB12546D7E72846FFF73D
:102F040049FFD1E704213046FFF7B0FF04462860AB
:102F14000028F1D10C233360EAE700BF500200001F
:102F24000100FFFF024B0349186800F073BC00BFA7
:102F340050020000FD550000836B03B1704729E780
:102F4400704700BF704700BF704700BF704700BFA5
:102F5400024B0349186800F037BC00BF080000208A
:102F6400892D0000024B0349186800F02DBC00BFF6
:102F7400080000206D2E00002DE9F04782B0804645
:102F84008946144600F09EFC012803D109F1FF3361
:102F9400FE2B36D94A4604F15C0301A9404602F0EF
:102FA400A7FA421C064632D030B39DF804C000256F
:102FB4000DF1040A09E023685A1C226083F800C05A
:102FC4000135B54218D215F80AC0A368013B002B9D
:102FD400A360F0DAA769BB4261462246404602DBA1
:102FE400BCF10A0FE7D102F023FA431CE8D10646EC
:102FF400304602B0BDE8F0874E46304602B0BDE828
:10300400F0875FFA89FC06468DF804C0CFE7A389F0
:10301400304643F04003A38102B0BDE8F08700BF0F
:10302400B2F90C3013F4005F0AD110B4546E43F4B7
:10303400005344F400545466938110BCFFF79CBFC2
:10304400FFF79ABF0E4B70B51D6806460C460DB1CE
:10305400AB6B8BB1B4F90C309A0406D4626E43F4B2
:10306400005342F40052A381626622463146284648
:10307400BDE87040FFF780BF2846FFF75DFFE9E732
:10308400080000202DE9F04F83B002FB03F7009203
:1030940099460C9C002F43D00D46064610B1836B15
:1030A400002B79D0B4F90C309AB2910407D4626E33
:1030B40043F4005322F40051A3819AB26166D4F818
:1030C4000480B8F1000F2FDB92074346D4F800C008
:1030D40032D43246BB464646634690460EE000F084
:1030E400E5FF23683344236021464046354401F01C
:1030F400A3FA002846D1D4E90036D346B345324674
:1031040019462846ABEB060AE9D85A4600F0CEFF2A
:10311400D4E90032A2EB0B025B44C4E900324F460F
:10312400384603B0BDE8F08F002192070B4661607A
:103134008846D4F800C0CCD5BB4228BF3B461A46CB
:1031440061462846019300F0B1FFD4E90002019BD7
:10315400216B00EB0308D21AC4E90082A7EB030B2E
:1031640011B3BBF1000F4ED004F14000814206D0F0
:103174003046019300F0AAF8D4F80080019B0021A6
:10318400216314E03744009BA7EB0B07B7FBF3F76D
:10319400384603B0BDE8F08FFFF7CEFEB4F90C302B
:1031A4009AB291048BD482E7BBF1000F2BD0D4E9FF
:1031B40004A2CDF804901D44B9465746B24646468B
:1031C400904601E08B46E1B1C4E9045B25602146E9
:1031D400504601F031FA636826600022C4E904789D
:1031E4001D446260ABEB03010028EBD04F461F4443
:1031F400009BA7EB0B07B7FBF3F7384603B0BDE81A
:10320400F08FDDF804904F46384603B0BDE8F08FE8
:1032140010B5054C82B0009313460A460146206857
:10322400FFF730FF02B010BD08000020F8B5244FAE
:103234000C46064601F03CF8BB685D68C4F57E6147
:103244000F3125F00305294421F47F6121F00F019A
:10325400A1F58054B4F5805F07DB0021304601F00E
:1032640077FABB682B44984204D0304601F022F828
:103274000020F8BD6142304601F06AFA01300DD0F9
:10328400104BBA6819682D1B45F001053046091B1F
:103294005560196001F00EF80120F8BD0021304698
:1032A40001F056FABA68831A0F2BDEDD064C054985
:1032B400246843F00103001B53600860D5E700BF96
:1032C400A4050020D4090020AC09002000295ED008
:1032D400F8B50F46064600F0EBFF57F804CC754DE1
:1032E4002CF00103A7F10800C218A96854689142A0
:1032F40024F0030400F084801CF0010F546002EBFE
:10330400040133D157F808EC4968A0EB0E0005F12D
:10331400080C87686745734401F0010160D0D0F858
:103324000CE0C7F80CE0CEF80870002900F08D809E
:1033340043F0010141601360B3F5007F30D2DB0834
:10334400591C6C689A1001239340234305EBC10276
:1033540055F831406B60083AC0E9024245F8310043
:10336400E0603046BDE8F84000F0A4BF4968C907F2
:103374000ED4234405F1080C9168614543F001041F
:103384006BD0D268CA6091604460C350D4E7704780
:1033940043F00101B3F5007F47F8041C1360CED35A
:1033A4005A0A042A46D89A0902F13907FF0002F1A1
:1033B4003801EC19EA59083C944255D0516821F07F
:1033C4000301994202D992689442F7D1D468C0E9C2
:1033D4000224A060D0603046BDE8F84000F06ABF27
:1033E400002962D1D2E90221234443F00104D160CF
:1033F4008A604460C3503046BDE8F84000F05ABFCC
:103404001CF0010F234407D157F8082C801A1344E9
:10341400D0E90212CA609160274A126843F00101A0
:103424009A424160A8609CD8244B30461968FFF743
:10343400FDFE96E7142A0AD9542A1DD81A0B02F164
:103444006F07FF0002F16E01B3E7234494E702F132
:103454005C07FF0002F15B01ABE7C5E90400C0E9CA
:1034640002CC4460C3507CE76B688910012707FADB
:1034740001F119436960AAE7B2F5AA7F06D8DA0B0D
:1034840002F17807FF0002F1770192E740F254510C
:103494008A4206D89A0C02F17D07FF0002F17C01F2
:1034A40087E74FF47E777E2183E743F00101416093
:1034B400136056E7A4050020B0090020D0090020BD
:1034C4009368002B00F002812DE9F04FB1F90C3024
:1034D4009BB20C46190783B08246904635D52269C3
:1034E4009AB313F00202D8F800603DD00027D4F854
:1034F40024B0D4F81CC0DFF8CC923D464D452B4691
:103504003A4628BF4B4661465046D5B1D8470028B5
:1035140040F3D280D8F808301B1A07442D1AC8F893
:103524000830002B00F0B780D4F81CC0D4F824B0C5
:103534004D452B463A4628BF4B4661465046002D22
:10354400E4D1D6E900750836D8E721465046FFF79E
:1035540053FA002840F03081B4F90C30D8F80060F8
:103564009BB213F00202C1D113F0010940F0B08004
:10357400A76820684D46002D54D09A0540F1BC80C0
:10358400AF42BB4600F2E78013F4906F2FD0D4E92A
:10359400041707EB4707A0EB010B07EBD777681C71
:1035A4007F105844B8423A4684BF07463A465B0502
:1035B40040F1E9801146504600F00AFA002800F074
:1035C400F5805A462169019000F070FDA289019BA3
:1035D40022F4906242F08002A281A7EB0B0203EB7B
:1035E4000B00676123612060A2602F46AB465A46F8
:1035F400494600F0F5FDA2682368D21B5B442F46C0
:10360400A26023600025D8F80830DB1BB944C8F851
:103614000830002B3FD0B4F90C30A76820689BB267
:10362400002DAAD1D6E900950836A4E70BF10803CA
:1036340053E902679B460833002FF9D03A460A2122
:10364400304600F0E3FC002853D00130A0EB06091B
:103654004B46D4E904122068BB4228BF3B4688424B
:1036640003D9A5681544AB4219DC9A427DDC1346A4
:10367400656AE16932465046A847051E1CDDB9EB70
:1036840005096BD00120D8F808305B1B2E447F1B42
:10369400C8F8083013BB002003B0BDE8F08F3146F2
:1036A4002A4600F09DFD23682B44236021465046A2
:1036B400FFF73CFB0028E2D0B4F90C3043F04003A0
:1036C4004FF0FF30A38103B0BDE8F08F00207047B6
:1036D40033469146104617464E469B46002FA5D0CA
:1036E4000028B5D13A460A21304600F08FFC002864
:1036F400ABD17B1C9946ACE72369834215D361693E
:10370400A94212D82E4B676A9D4294BF2B466FF094
:1037140000434A4693FBF1F3504601FB03F3E1698E
:10372400B847071EC8DDED1B6DE7AF4228BF2F4623
:103734003A46494600F054FDA3682268DB1B3A442C
:10374400A3602260002BEED121465046FFF7EEFA2B
:103754000028E8D0B0E72F46AB4648E7214650465C
:10376400FFF7E4FA00288ED0A6E71A463146019303
:1037740000F036FD019BA1682268C91A1A44A160B1
:1037840022601D467BE7504600F096FD0346002864
:103794007FF423AF21695046FFF798FDB4F90C304C
:1037A4000C2223F08003CAF8002087E70C23CAF810
:1037B4000030B4F90C3081E74FF0FF306CE700BF04
:1037C400FEFFFF7F00FCFF7F2DE9F04110F5387705
:1037D4001BD088460026D7E90154013D0FD4A389A4
:1037E400012B05F1FF3506D9B4F90E30013320461B
:1037F40001D0C04706436B1C04F16804EFD13F6855
:10380400002FE8D13046BDE8F0813E463046BDE8A1
:10381400F08100BF2DE9F84310F538771FD08846B2
:1038240006464FF00009D7E90154013D11D4A3899C
:10383400012B05F1FF3508D9B4F90E3001332146C7
:10384400304602D0C04749EA00096B1C04F1680401
:10385400EDD13F68002FE6D14846BDE8F883B9466C
:103864004846BDE8F88300BF002100F001B800BF5E
:10387400FF289DBF024BC05C00F008000020704789
:10388400C902000042B110B50B491046144600F0BD
:10389400F9FF18B9094810BD084870470749204680
:1038A40000F0F0FF0028F5D02046054900F0EAFFBB
:1038B4000028EFD0002010BDD0030000CC0300008E
:1038C40084020000014B93F828017047380400205B
:1038D400024B0A4601461868FFF7D4BF08000020CF
:1038E40070B50C46B1F90E10002996B015461E4667
:1038F40014DB6A4601F0CCFE00280FDB019A02F4C7
:103904007042A2F50052B2FA82F252094FF4806377
:103914004FF4006032602B6016B070BDA2890023A2
:1039240012F08000336004D0402218462A6016B09A
:1039340070BD4FF480632B6016B070BD8A89920706
:103944000B4606D501F1430201211A60C3E90421A3
:10395400704770B582B001AB6A460C460646FFF765
:10396400BFFF00990546304600F032F8B4F90C3038
:1039740070B11649F163019A0099206043F0800305
:10398400A381C4E904018AB92B43A38102B070BDA9
:103994009A05FBD423F0030304F1430243F002032A
:1039A4000121A3812260C4E90421EFE73046B4F980
:1039B4000E1001F081FE10B9B4F90C30E4E7A389CC
:1039C40023F0030343F001031BB2DDE78D2D000058
:1039D4002DE9F04F01F10B05162D83B0064623D8CF
:1039E400102900F2B98000F063FC1025182302208E
:1039F400CD4F3B44A3F108025C68944200F0B980C7
:103A0400636823F003032344D4E902515A68E9604C
:103A140042F0010230468D605A6000F04BFC0834DD
:103A2400204603B0BDE8F08F35F0070500F194801F
:103A3400A94200F2918000F03BFCB5F5FC7FC0F098
:103A44009D816B0A00F08F80042B00F27381AB0917
:103A540003F1390003F1380CC300B34F3B44A3F125
:103A640008015C68A14206D10CE0002A80F22B8197
:103A7400E468A14206D0636823F003035A1B0F2AAB
:103A8400F3DD60463C69DFF8A4C264457CD063681A
:103A940023F003035A1B0F2A00F37E81002AC7E98F
:103AA40004CC80F26F81B3F5007F80F01A81DB08CB
:103AB400591C7A6857F83180C4F808804FF0010E19
:103AC4009B100EFA03F307EBC10E1343AEF1080289
:103AD400E2607B6047F83140C8F80C408210012452
:103AE40094409C4256D81C4206D120F00300640046
:103AF4001C4200F10400FAD007EBC009CE46804610
:103B0400DEF80C309E4507D120E1002A80F227819F
:103B1400DB689E4500F01A81596821F003014A1BB5
:103B24000F2AF2DDD3E9028E5C1945F001055D60D0
:103B340042F00105C8F80CE03046CEF80880C7E929
:103B44000444C4E902CC65605A50009300F0B2FB0F
:103B5400009B03F1080402E00C2333600024204698
:103B640003B0BDE8F08F4FF4007340204FF03F0CDA
:103B740073E7DC68A34208BF02307FF441AF3C69BD
:103B8400DFF8A8C1644582D17B6882100124944087
:103B94009C42A8D9BC68636823F00308A84503D3F2
:103BA400A8EB05030F2B7EDCDFF88491D7F80824FB
:103BB400D9F80030013204EB080A2B4400F03781B5
:103BC40003F580530F3323F47F6B2BF00F0B59460F
:103BD400304600F0BDFD411C024600F0F7808245EE
:103BE40000F2F280D9F804105944C9F804100B46C5
:103BF40000F05381D7F8081401311BBFA2EB0A0A65
:103C04005344C7F80824C9F8043012F0070300F03D
:103C14001A81C3F108010A44C3F580519344083161
:103C2400A1EB0B01C1F30B0A5146304601930092FC
:103C340000F08EFD421CDDE9002300F05381831A5D
:103C440003EB0A0BD9F80410BA604BF0010351449A
:103C5400BC425360C9F8041000F02B81B8F10F0F77
:103C640040F229816368A8F10C0020F0070003F0FA
:103C7400010304EB000C03434FF0050E0F286360AF
:103C8400CCE901EE00F2358153681446D9F82C20B2
:103C94008A42D9F8302038BFC9F82C108A4238BF7C
:103CA400C9F8301094E0621943F0010345F00105AE
:103CB40065603046BA60536000F0FCFA0834204670
:103CC40003B0BDE8F08F2344E1685A68A56842F068
:103CD4000102E96030468D605A6000F0EBFA083466
:103CE4003DE75A0A042A69D9142A00F2BE8002F177
:103CF4005C01C9005B3207EB010E7958AEF1080E86
:103D04008E4500F097804A6822F003029A4202D955
:103D140089688E45F7D1D1F80CE07B68C4E9021EAE
:103D2400CEF80840CC60D9E6A4050020AC050020FC
:103D3400D0090020142B59D9542B00F29E802B0B50
:103D440003F16F0003F16E0CC30086E608F101086D
:103D540018F0030F0EF1080E7FF4D2AE51E01944AF
:103D64001C464A68DB6854F8085F42F001024A6066
:103D74003046EB609D6000F09DFAF0E6E80805F13E
:103D8400080335E6234430465A6842F001025A607B
:103D9400083400F08FFAE2E6611945F0010E42F0B2
:103DA4000105C4F804E03046C7E90411C1E902CCB6
:103DB4004D60E25000F07EFA0834D0E69A0902F130
:103DC4003901C900383296E7BC4260D0BC686368E8
:103DD40023F0030BAB45ABEB050302D30F2B3FF7EB
:103DE40062AF304600F066FA0024B8E603F15C00E6
:103DF40003F15B0CC30030E659F808394B4540F039
:103E0400968010F0030F00F1FF30F5D17B6823EAB0
:103E140004037B6064009C423FF6BCAE1CB9B9E667
:103E2400640008F104081C42FAD0404664E603F139
:103E3400100BCCE67B6892104FF0010808FA02F2EE
:103E440013437B606AE702EB0B014942C1F30B0A9F
:103E5400514630460193009200F07AFC431CDDE9A0
:103E640000237FF4ECAE9A46ECE6542A26D81A0BCB
:103E740002F16F01C9006E323DE7B3F5AA7F26D87F
:103E8400EB0B03F1780003F1770CC300E5E5D9F8F7
:103E940004305B44C9F80430ACE6CAF30B000028D4
:103EA4007FF4A8AE08EB0B03BC6843F00103636026
:103EB400ECE61446EAE60123536092E7B2F5AA7FE2
:103EC40021D8DA0B02F17801C900773213E740F206
:103ED4005452934221D8AB0C03F17D0003F17C0CC6
:103EE400C300BAE5083B9B44ABEB020B4FF0000A5E
:103EF400A8E604F108013046FFF7E8F9BC68D9F8F0
:103F040004106368C2E640F254518A420BD89A0CFA
:103F140002F17D01C9007C32EDE64FF47E737F200F
:103F24004FF07E0C99E54FF47E717E22E3E67B68C8
:103F340070E700BFF0B50D4D83B0D5F8E450089C90
:103F440007462AB10094A847431C08D003B0F0BD2B
:103F5400114601230094064AA847431CF6D10022C7
:103F64008A2322603B6003B0F0BD00BF3804002008
:103F740084020000F0B50F4D0F4CD5F8E4602468BE
:103F840083B01D4649B1009313460A4601462046B4
:103F9400B047431C08D003B0F0BD0093074A012387
:103FA4002046B047431CF6D100228A232A602360AE
:103FB40003B0F0BD38040020080000208402000093
:103FC40010B4034CD4F8E440A44610BC604700BFCE
:103FD4003804002082B049B15AB16BB113780B6038
:103FE4001278101C18BF012002B0704701A9002AE2
:103FF400F3D1104602B070476FF00100F4E700BF40
:1040040000000000000000000000000001F0FF01BB
:10401400102A2BDB10F0070F08D010F8013B013AEF
:104024008B422DD010F0070F42B3F6D1F0B441EA21
:10403400012141EA014122F007047FF00007002337
:10404400F0E80256083C85EA010586EA010685FA8D
:1040540047F5A3FA87F586FA47F6A5FA87F68EB9E7
:10406400EED1F0BC01F0FF0102F0070232B110F80A
:10407400013B013A83EA010313B1F8D100207047F0
:1040840001387047002D06BF35460338073815F050
:10409400010F07D1013015F4807F02BF013015F400
:1040A400C03F0130F0BC0138704700BF844641EA8C
:1040B400000313F003036DD1403A41D351F8043B9C
:1040C40040F8043B51F8043B40F8043B51F8043BEE
:1040D40040F8043B51F8043B40F8043B51F8043BDE
:1040E40040F8043B51F8043B40F8043B51F8043BCE
:1040F40040F8043B51F8043B40F8043B51F8043BBE
:1041040040F8043B51F8043B40F8043B51F8043BAD
:1041140040F8043B51F8043B40F8043B51F8043B9D
:1041240040F8043B51F8043B40F8043B51F8043B8D
:1041340040F8043B51F8043B40F8043B403ABDD2FC
:10414400303211D351F8043B40F8043B51F8043B9E
:1041540040F8043B51F8043B40F8043B51F8043B5D
:1041640040F8043B103AEDD20C3205D351F8043B2D
:1041740040F8043B043AF9D2043208D0D2071CBFF9
:1041840011F8013B00F8013B01D30B880380604622
:10419400704700BF082A13D38B078DD010F0030398
:1041A4008AD0C3F10403D21ADB071CBF11F8013B08
:1041B40000F8013B80D331F8023B20F8023B7BE757
:1041C400043AD9D3013A11F8013B00F8013BF9D282
:1041D4000B7803704B7843708B788370604670471C
:1041E4008842F0B40DD98B1883420AD9841832B1AD
:1041F400224613F8014D02F8014D9942F9D1F0BC61
:1042040070470F2A0ED80346541E002AF7D00134F3
:104214000C44013B11F8012B03F8012FA142F9D101
:10422400F0BC704740EA01039B073BD1A2F11007A1
:104234003F0901F1200606EB071601F1100300F116
:10424400100453F8105C44F8105C53F80C5C44F808
:104254000C5C53F8085C44F8085C53F8045C44F8BC
:10426400045C1033B34204F11004EAD17B1C1B013B
:1042740012F00C0F194402F00F05034415D0043D4D
:10428400AD0803EB850C1C1F0E4656F8047B44F85E
:10429400047F6445F9D10135AD002B44294402F073
:1042A4000302B1E7541E0346B1E72A46ACE700BF58
:1042B400704700BF704700BF2DE9F84F174600292B
:1042C40000F0BB8007F10B0481460D46FFF7F0FFB9
:1042D400162C5ED810242246A7425FD855F804EC69
:1042E4002EF00306A5F10808964208EB060A80F2B0
:1042F4008180CB4BDAF804009968514500F0B58011
:1043040020F0010353445B68DB0700F18A8020F04E
:1043140003003318934280F212811EF0010F0FD173
:1043240055F8083CA8EB030BDBF8041021F003015B
:1043340008448319934280F216817318934234DA45
:1043440039464846FFF744FB0746E0B155F8043CBC
:1043540023F001034344A0F10802934200F0F780E4
:10436400321F242A00F2FB80132A296800F2C98034
:1043740003462A4619605168596092689A60294632
:104384004846FEF7A3FF4846FFF794FF3846BDE8CA
:10439400F88F24F00704002C22469DDA0C23C9F878
:1043A400003000273846BDE8F88F5F46DBF80C1074
:1043B40057F8080F321F242AC1600BEB030A8860E8
:1043C40000F2D980132A296840F2D380CBF8081070
:1043D4006968CBF80C101B2AA96800F2E0800BF185
:1043E40010020835116069685160A96891601E4621
:1043F400D8463D46D8F80430321B0F2A03F0010397
:1044040020D83343C8F80430DAF8043043F0010309
:10441400CAF8043048462F46FFF74CFF3846BDE83B
:10442400F88F1EF0010F8BD155F8083CA8EB030B55
:10443400DBF8041021F003017FE71146BDE8F84FD3
:10444400FFF7C6BA08EB0401234342F00102C8F89F
:1044540004304A60DAF8043043F001030831CAF842
:1044640004304846FEF732FFD4E720F00300311849
:1044740004F1100C61454FDA1EF0010F7FF460AFB8
:1044840055F8081CA8EB010BDBF8041021F003011C
:10449400084400EB060AD4453FF74FAF5F46DBF80C
:1044A4000C1057F8080F321F242AC160886000F2EC
:1044B4009980132A296840F29380CBF80810696820
:1044C400CBF80C101B2AA96800F292800BF11002A1
:1044D4000835116069685160A96891600BEB0401AB
:1044E400AAEB040242F0010299604A60DBF804304E
:1044F40003F001031C434846CBF80440FFF7DAFEFF
:1045040050E701606B6843601B2A3CD805F1080240
:1045140000F10803A9682DE708EB04000A1B42F028
:1045240001029860426055F8043C03F001031C4307
:10453400484645F8044CFFF7BDFE2F4632E7DAE95A
:1045440002121E46CA6008EB030A916052E750F853
:10455400043C23F003031E4408EB060A4AE72946F9
:10456400FFF73EFE0BE7DAE902125F46CA6091608C
:104574001CE73A4636E7294638461E46D846FFF732
:104584002FFE3D4636E7AB688360EB68C360242AA0
:1045940011D005F1100200F110032969EAE6CBF805
:1045A4001010E968CBF81410242A0ED029690BF1F5
:1045B4001802103516E72B6903616B694361A96919
:1045C40005F1180200F11803D4E62A69CBF8182083
:1045D4006A69CBF81C20A9690BF12002183501E7A0
:1045E4003A4676E729463846FFF7FAFD0C4B75E75D
:1045F400CBF81010E968CBF81410242A04D02969E8
:104604000BF11802103564E72A69CBF818206A699F
:10461400CBF81C20A9690BF12002183559E700BF1B
:10462400A4050020838903F00903092B01D000208D
:104634007047FEF795BB00BFF8B50C46054610B1B0
:10464400836B002B41D0B4F90C309AB2970407D491
:10465400626E43F4005322F400526266A3819AB25C
:104664000021960661605BD450071BD4D1065AD54D
:1046740012073ED443F00403A3812369002B44D0E2
:10468400B4F90C70BEB2B30722D122692260284665
:104694006369256AE169A84700286060C8BF0020F3
:1046A40038DDF8BD216B0029E7D004F140039942BD
:1046B40002D02846FEF70AFEE36B63600020206305
:1046C400002BDAD0A36B2360F8BDFEF735FCBAE704
:1046D4001D4B1E4918680123A38106F00906FFF744
:1046E40073F8092EA781D0D121462846FEF778FA1F
:1046F400CBE721462846FEF719FB88B9B4F90C30FC
:10470400A060A06123F00803B4E721462846FFF720
:1047140015F9B5E7B4F90C300DD143F02003A381AA
:104724004FF0FF30F8BD43F0400309222A604FF0F8
:10473400FF30A381F8BD43F040030022A3816260EF
:104744004FF0FF30F8BD00BF5002000029460000C2
:1047540038B5074C002305460846236001F084F968
:10476400431C00D038BD2368002BFBD02B6038BD20
:10477400080A002070B40C785E2C064620D0002273
:10478400481C1546731E06F1FF0103F8012F8B42E6
:10479400FBD194B185F001033355411C11F8012C70
:1047A4002D2A01F1FF3508460FD05D2A03D00AB146
:1047B4001446F1E7284670BC7047013870BC704756
:1047C40001224C781546881CDCE70D785D2DEFD06E
:1047D400AC42EDDC32190134A54202F8013FFADCA7
:1047E4000231DBE710B50C46B1F90E1000F08CFF76
:1047F400002803DB236D0344236510BDA38923F440
:104804008053A38110BD00BF002070472DE9F04103
:104814001646B1F90C201F46D3050C460546B1F9DE
:104824000E1009D422F48052A2813B463246284617
:10483400BDE8F04100F0B2BE0022022300F04EFFBA
:10484400B4F90C20B4F90E10ECE700BF10B50C4617
:10485400B1F90E1000F042FFA389421C0EBF23F4ED
:10486400805343F480532065A38110BDB1F90E1029
:1048740000F0AABE0000000000000000A2EB03004C
:10488400704700BF02780B78012A28BF9A42F5D1FD
:104894006DE9044540EA0104CDE902676FF0000CBC
:1048A4004FEA447212B380EA010414F0070F6AD18C
:1048B40000F0070420F0070004F0030521F00701CD
:1048C4004FEAC505F0E8042314F0040FF1E8046787
:1048D4000CFA05F462EA040266EA04060AD063EA02
:1048E4000403624667EA0407664603E0F0E804232B
:1048F400F1E8046782FA4CF582EA0604A4FA8CF41F
:104904006CBB83FA4CF583EA0705A5FA8CF595B9D7
:1049140050E9022351E9026782FA4CF582EA06045F
:10492400A4FA8CF483FA4CF583EA0705A5FA8CF50E
:104934002543DBD09CB92DBAB5FA85F424F00704DD
:1049440027FA04F1DDE9026723FA04F303F0FF0018
:1049540001F0FF01FDE80445A0EB0100704724BA13
:10496400B4FA84F424F0070426FA04F1DDE90267BA
:1049740022FA04F202F0FF0001F0FF01FDE8044511
:10498400A0EB0100704714F0030F3CD110F00304B6
:1049940028D150F8082B51F8083B82FA4CF582EAEA
:1049A4000305A5FA8CF55DB950F8042C51F8043CC4
:1049B40082FA4CF582EA0305A5FA8CF5002DE8D0BD
:1049C4002DBAB5FA85F424F0070423FA04F122FA87
:1049D40004F202F0FF0001F0FF01FDE80445A0EB42
:1049E400010070474FEAC40420F0030050F8082B7C
:1049F40021F0030151F8083B0CFA04F462EA0402C2
:104A040063EA0403C9E710F003041AD0A1EB04011C
:104A140020F00300E40750F8042B06D00FD28B7863
:104A24005FFAA2F4E41A06D12BB1CB785FFAB2F4A0
:104A3400E41A00D11BB920465DF8104B704701F110
:104A4400040150F8042BCC0721F0030151F8043B76
:104A540048D824D222F07F4482FA4CF594EA1325F4
:104A6400A5FA8CF50AD165B951F8043B84EA02042D
:104A7400B4EB036F0ED150F8042BEBE74FEA13238A
:104A840055E035F07F454DD10878FDE80445C0F187
:104A9400000070474FEA126203F0FF0347E002EAA6
:104AA4001C4482FA4CF594EA1345A5FA8CF50AD114
:104AB40065B951F8043B84EA0204B4EB034F0CD10A
:104AC40050F8042BEBE74FEA134330E015EA1C459A
:104AD40028D10B884FEA124229E04FEA124203EA36
:104AE4001C4324E002F0FF0482FA4CF594EA1365B7
:104AF400A5FA8CF50AD165B951F8043B84EA02049D
:104B0400B4EB032F09D150F8042BEBE74FEA1363FE
:104B14000DE015F0FF0F05D10B684FEA122223F0C8
:104B24007F4304E04FF00000FDE80445704712BAEB
:104B34001BBA82FA4CF482EA0304A4FA8CF5B5FA9F
:104B440085F402FA04F203FA04F34FEA1260FDE872
:104B54000445A0EB13607047000000000000000053
:104B64000000000000000000000000000000000041
:104B740000000000000000000000000090F800F0B9
:104B84006DE9024520F007016FF0000C10F00704F6
:104B940091F820F040F049804FF000046FF00700D6
:104BA400D1E9002391F840F000F1080082FA4CF2B8
:104BB400A4FA8CF283FA4CF3A2FA8CF34BBBD1E93E
:104BC400022382FA4CF200F10800A4FA8CF283FA70
:104BD4004CF3A2FA8CF3E3B9D1E9042382FA4CF240
:104BE40000F10800A4FA8CF283FA4CF3A2FA8CF3D5
:104BF4007BB9D1E9062301F1200182FA4CF200F1DC
:104C04000800A4FA8CF283FA4CF3A2FA8CF3002B7A
:104C1400C6D0002A04BF04301A4612BAB2FA82F28D
:104C2400FDE8024500EBD2007047D1E9002304F00F
:104C34000305C4F100004FEAC50514F0040F91F810
:104C440040F00CFA05F562EA05021CBF63EA0503AD
:104C540062464FF00004A9E7012B2DE9F84F41D03B
:104C6400242B98463ED80F46DFF81CC100E02F469F
:104C74003D4615F8014B1CF8046016F00806F6D101
:104C84002D2C6CD02B2C0ABF95F800B0A346BD1C6C
:104C9400002B46D0102B57D0002E14BF4FF00049E4
:104CA4006FF000490027B9FBF8FEBC4608FB1E9ACA
:104CB40007E0E64513D32FD00CFB084C012715F869
:104CC40001BBABF13004092C05D9ABF14104192C1B
:104CD4000FD8ABF13704A34213DD002FE9DA4FF00C
:104CE400FF37ECE700F082FC162303600020BDE8E8
:104CF400F88FABF16104192C03D8ABF15704A3422C
:104D0400EBDC002F25DB0EB1CCF1000C0AB177BB34
:104D140011606046BDE8F88FA245CDDA4FF0FF3749
:104D2400CDE7BBF1300F03D04FF00A084346B3E799
:104D34002B7803F0DF03582B1BD14FF0100895F8A4
:104D440001B043460235A7E7BBF1300F15D09846B2
:104D5400A2E7222303603AB1691ECC46D8E795F84E
:104D640000B00126BD1C93E7CC466046D2E7E1467D
:104D7400F2E74FF0080843468EE72C7804F0DF048E
:104D8400582CDAD0984687E7C902000064E700BFD0
:104D940010B4034C13460A460146206810BC5BE776
:104DA4000800002010B4034C13460A46014620684C
:104DB40010BC51E7080000202DE9F04F89B01F46D0
:104DC4000392CDE906100B465E4A00E02B461D46D1
:104DD40015F8014B165D16F00806F7D12D2C00F0DE
:104DE40086802B2C04BF2C789D1C002F6DD0102F97
:104DF40000F08180B8464FEAE779002E5FD14FF08A
:104E0400FF316FF00043CDE9041342464B46DDE920
:104E1400040100F08FFC82468B464FF0000C00200A
:104E24000021CDE900AB12E044D08B4600FB09F42D
:104E340008FB0B44A0FB0801214410EB030A41EBDF
:104E4400E37B504659464FF0010C15F8014BA4F191
:104E54003003092B05D9A4F14103192B0FD8A4F170
:104E640037039F4213DDBCF1FF3FEED0DDE900AB19
:104E74008B4508BF8245D7D24FF0FF3CE5E7A4F14C
:104E84006103192B03D8A4F157039F42EBDCBCF157
:104E9400FF3F22D016B1404261EB4101039B33B185
:104EA400BCF1000F4BD1039B1A46069B136009B05B
:104EB400BDE8F08F9A42B8DA4FF0FF3CC5E7002214
:104EC4004FF00043CDE904239FE7302C27D04FF067
:104ED4000A084FF000090A278FE7079A2223136074
:104EE400039B3BB36B1EDDE904010693DBE72C78DF
:104EF40001269D1C79E7302C04D12B7803F0DF03C5
:104F0400582B04D04FF010084FF0000975E76C7867
:104F14004FF010084FF00009023510276DE72B7889
:104F240003F0DF03582BF2D04FF008084FF00009CC
:104F3400082762E7DDE9040109B0BDE8F08FCDE997
:104F44000401CFE7C902000036E700BF10B4034CE8
:104F540013460A460146206810BC2DE708000020CD
:104F640010B4034C13460A460146206810BC23E7DC
:104F7400080000202DE9F0470F464C4D00E067463D
:104F8400BC461CF8014B2E5D16F00806F7D12D2CFB
:104F940058D02B2C0ABF9CF80050254607F1020C70
:104FA400F3B3102B54D04FF0FF38B8FBF3F803FBE6
:104FB40008FA6FEA0A0A99460027BE4607E0C64582
:104FC40013D828D009FB0E4E01271CF8015BA5F16C
:104FD4003004092C05D9A5F14104192C08D8A5F1F0
:104FE4003704A3420CDD002FE9DA4FF0FF37ECE77A
:104FF400A5F16104192C03D8A5F15704A342F2DCEE
:10500400002F16DB0EB1CEF1000E0AB1BFB911604C
:105014007046BDE8F0875445D4DD4FF0FF37D4E740
:10502400302D29D00A2399464FF0050ADFF88080F5
:10503400C2E7222303604FF0FF3E002AE8D00CF1C0
:10504400FF31E4E79CF80050012607F1020CA7E7C2
:10505400302D24D19CF8004004F0DF04582C18D1E2
:105064004FF010099CF801504B464FF00F0A0CF119
:10507400020C6FF070489FE79CF8003003F0DF03E8
:10508400582BEDD0082399464FF0070A6FF060487B
:1050940092E799466FF070484FF00F0A8CE74FF093
:1050A4000F0A6FF07048994686E700BFC9020000F6
:1050B400999999195EE700BF10B4034C13460A4648
:1050C4000146206810BC55E70800002010B4034CCA
:1050D40013460A460146206810BC4BE7080000202E
:1050E4002DE9F04F87B01E4603920F4605900B46FC
:1050F4006A4A00E02B461D4615F8014B12F804B02D
:105104001BF0080BF6D12D2C00F090802B2C09BF3E
:105114002C78CDF810B0CDF810B09D1C002E6CD0BA
:10512400102E00F08880B2464FEAE67B52465B467A
:105134004FF0FF304FF0FF3100F0FCFA524680464A
:1051440089465B464FF0FF304FF0FF3100F0F2FA32
:105154004FF0000C00200021CDE900AB1CE0894594
:1051640008BF804527D3494508BF404540D0824603
:1051740001980AFB00F400988B4600FB0B44AAFB41
:105184000001214410EB030A41EBE37B50465946EE
:105194004FF0010C15F8014BA4F13003092B05D98C
:1051A400A4F14103192B09D8A4F137039E420DDD64
:1051B400BCF1000FD3DA4FF0FF3CEBE7A4F161033D
:1051C400192B03D8A4F157039E42F1DCBCF1000F64
:1051D40020DB049B13B1404261EB4101039B23B1EB
:1051E400BCF1000F20D1039B1F6007B0BDE8F08F16
:1051F4009342BCDD4FF0FF3CCCE7302C2FD005228E
:105204004FF09938DFF898904FF00A0A4FF0000BEE
:105214000A269DE7059A22231360039B4FF0FF3073
:105224004FF0FF31002BE0D06F1EDCE701222C7819
:1052340004929D1C72E7302C26D12B7803F0DF03F7
:10524400582B1CD16C780F2202354FF0FF386FF0C9
:1052540070494FF0100A4FF0000B102678E72B78B6
:1052640003F0DF03582BEDD007224FF0FF386FF027
:1052740060494FF0080A4FF0000B082668E74FF02A
:10528400100A4FF0000B51E70F224FF0FF386FF078
:1052940070494FF0100A4FF0000B59E7C9020000A3
:1052A400999999191CE700BF10B4034C13460A4698
:1052B4000146206810BC13E70800002010B4034C1A
:1052C40013460A460146206810BC09E7080000207E
:1052D40001F140032DE9F0410C46096B994214D0C9
:1052E400666B77003A46FEF7E7FF054640B300EBEE
:1052F4000608324640462946FEF7D8FEC4E90C5754
:10530400C4F800800020BDE8F0814FF48061FEF70E
:105314005FFBA8B194F842304FF48062C4E90C02F8
:1053240080F8FF3394F8413080F8FE3394F840302D
:1053340080F8FD3300F2FD3020600020BDE8F081EC
:105344004FF0FF30DFE700BF70B54C1C34D0064689
:1053540014460D4610B1836B002B30D0B4F90C30D9
:105364009A0405D4626E22F4005243F40053626638
:1053740023F020039AB25007A38106D4D1061BD58B
:1053840012073BD443F00403A381226B6368EDB29C
:10539400E2B1626B9A4209DD23685A1E226003F867
:1053A400015C636801336360284670BD3046214662
:1053B400FFF78EFF0028EFD04FF0FF35F4E7FDF73D
:1053C400BBFDB4F90C309A04D2D4CBE7226921682E
:1053D4002AB18A4203D211F8012CAA421BD02246D8
:1053E40004F14000E3630323C4E90C03A16302F85E
:1053F400425F0123C4E90023284670BD214630469C
:10540400FDF794FC0028D7D1B4F90C30A060A0615A
:1054140023F00803B6E701390133C4E90013C3E7F5
:10542400024B0A4601461868FFF78EBF08000020A9
:10543400F8B50D461446064610B1836B002B43D0D5
:10544400B4F90C20A369A36091B208071BD52369A2
:10545400CBB1EDB289042F4622D522686169D31AF3
:10546400994229DD0133A168501C0139A1602060F3
:10547400157062699A422AD0A389DB0701D50A2DE7
:1054840025D03846F8BD21463046FDF7B5FA20BB95
:10549400B4F90C20236991B2EDB289042F46DCD40F
:1054A400616E42F4005221F40051A28122686166C7
:1054B4006169D31A9942D5DC21463046FDF736FCA2
:1054C40058B922680123CEE7FDF736FDB8E7214637
:1054D4003046FDF72BFC0028D3D04FF0FF37D0E740
:1054E400024B0A4601461868FFF7A2BF08000020D5
:1054F400F0B50B4C85B00646D4F8E0401F4621B108
:10550400A047431C06D005B0F0BD0A4601A9A04738
:10551400431CF8D100228A233A60336005B0F0BD01
:105524003804002070B50F4B0F4CD3F8E0602468AA
:1055340084B0154640B10A462B4601462046B04782
:10554400431C08D004B070BD02462B4601A9204676
:10555400B047431CF6D100228A232A60236004B09A
:1055640070BD00BF380400200800002010B4034CB4
:10557400D4F8E040A44610BC604700BF38040020C3
:1055840049B1FF2A02D80A70012070478A230360B8
:105594004FF0FF3070470846704700BF70B50D46A6
:1055A400084C114606461A46284600232360FAF79B
:1055B40093FF431C00D070BD2368002BFBD03360E5
:1055C40070BD00BF080A002038B5074C002305460B
:1055D4000846236000F028FA431C00D038BD236835
:1055E400002BFBD02B6038BD080A0020014B186843
:1055F400704700BF0800002070B539B105460C465D
:1056040008B1836B83B3B4F90C3013B90026304668
:1056140070BD21462846FDF7E3FAE36A064633B136
:10562400E169284698470028B8BF4FF0FF36A389A0
:105634001B0620D4216B41B104F14003994202D0EE
:105644002846FDF743FE00232363616C21B12846FD
:10565400FDF73CFE00236364FDF772FC0023A38185
:10566400FDF770FC304670BDFDF766FCB4F90C30F4
:10567400002BCBD0CDE721692846FDF727FED9E7DB
:10568400024B01461868FFF7B7BF00BF08000020AF
:1056940038B50B46074C05461146184600232360CF
:1056A40000F0CAF9431C00D038BD2368002BFBD09E
:1056B4002B6038BD080A002038B5074C0023054686
:1056C4000846236000F0C0F9431C00D038BD2368AD
:1056D400002BFBD02B6038BD080A002070B50D46A6
:1056E400084C114606461A4628460023236000F05B
:1056F400B3F9431C00D070BD2368002BFBD033608A
:1057040070BD00BF080A002070B50D46084C114654
:1057140006461A46284600232360FAF7FCFE431C7B
:1057240000D070BD2368002BFBD0336070BD00BF78
:10573400080A002053B94AB9002908BF00281CBF31
:105744004FF0FF314FF0FF3000F06CB9ADF1080CB1
:105754006DE904CE00F006F8DDF804E0DDE902238B
:1057640004B070472DE9F047089E0D4604468E4666
:10577400002B40F082808A42174646D9B2FA82F260
:105784004AB1C2F1200105FA02F320FA01F197406F
:1057940041EA030E94404FEA1748230CBEFBF8FC81
:1057A400B9B208FB1CEE43EA0E430CFB01F098422D
:1057B4000AD9FB180CF1FF3580F01681984240F2AB
:1057C4001381ACF1020C3B441B1AA4B2B3FBF8F0F6
:1057D40008FB103344EA034400FB01F1A14209D958
:1057E4003C1900F1FF3380F00181A14240F2FE80B8
:1057F40002383C44641A40EA0C4000211EB1D440F3
:105804000023C6E90043BDE8F08702B9FFDEB2FA1F
:1058140082F2002A4FD1CB1B4FEA174E1FFA87F8AA
:105824000121B3FBFEFC250C0EFB1C3345EA0345AA
:1058340008FB0CF3AB4207D97D190CF1FF3002D2FF
:10584400AB4200F2E7808446ED1AA3B2B5FBFEF04A
:105854000EFB105543EA054408FB00F8A04507D9A0
:105864003C1900F1FF3302D2A04500F2D78018465C
:10587400A4EB080440EA0C40C0E78B4208D9002E90
:1058840000F0AF800021C6E900050846BDE8F087B6
:10589400B3FA83F100294BD1AB4202D3824200F226
:1058A400B780841A65EB030301209E46002EAAD01C
:1058B400C6E9004EA7E7C2F1200C01FA02F39740B3
:1058C40020FA0CF04FEA174E21FA0CFC1843BCFBEB
:1058D400FEF1050C0EFB11CC1FFA87F845EA0C45C6
:1058E40001FB08F3AB4204FA02F409D97D1901F172
:1058F400FF3C80F08B80AB4240F2888002393D440B
:10590400EB1A85B2B3FBFEF00EFB103345EA0345F8
:1059140000FB08F3AB4207D97D1900F1FF3C71D2BB
:10592400AB426FD902383D44EB1A40EA014178E7B3
:10593400C1F1200C8B4022FA0CF71F4320FA0CF41F
:1059440005FA01F34FEA174E25FA0CF51C43230C14
:10595400B5FBFEF91FFA87F80EFB195543EA054516
:1059640009FB08FAAA4502FA01F200FA01F308D980
:105974007D1909F1FF3047D2AA4545D9A9F1020999
:105984003D44A5EB0A05A4B2B5FBFEF00EFB105591
:1059940044EA054400FB08F8A04507D93C1900F186
:1059A400FF352DD2A0452BD902383C4440EA0940AA
:1059B400A4EB0804A0FB02894C45C6464D4619D306
:1059C40016D05EB1B3EB0E0264EB050404FA0CFCD2
:1059D400CA404CEA0202CC40C6E900240021BDE8DA
:1059E400F087314630460EE7AC46EDE6184601E74F
:1059F4004345E6D2B8EB020E69EB07050138E0E750
:105A04002846D3E760468FE78146BAE7614677E7E1
:105A140008464BE7ACF1020C3D4415E702383C4420
:105A240026E700BF704700BF024B58221A604FF0B0
:105A3400FF307047080A0020024B58221A604FF0CA
:105A4400FF307047080A0020024B58221A600020D9
:105A5400704700BF080A0020024B58221A604FF01A
:105A6400FF307047080A0020044A05491368002BD8
:105A740008BF0B461844106018467047040A0020FB
:105A84000C0A0020FEE700BFF8B500BFF8BC08BC54
:105A94009E467047D12B00004D040000F8B500BFAE
:105AA400F8BC08BC9E4670472504000000000000B6
:105AB400FC5A0000000000206D020000B0640000E9
:105AC400B409002000000000B0640000B409002004
:105AD40000000000B0640000B409002000000000D1
